:080000004A0C0400000000009E
:040054001C0200008A
:100400003220EF00C3202000008041001040BA00DD
:100410000160EF00000006002C0000003220EF0019
:10042000A3212000008041001040BA000160EF00CD
:1004300000000600000000004200F8003600F8004E
:100440003200F800801F7800200020000C00090016
:10045000B01F78002202AE00FEFF3700301180008E
:100460004DEEB700647280004822DE0014C2B20074
:1004700002003A004C6EA8001E00370024E5200060
:1004800073738000848241004DCEBF00804A7800A3
:100490006E2EEC00647280004822DE0004C4B200BC
:1004A00014003A0074738000E102520024E5200039
:1004B00004834200130020000200200086407800E0
:1004C0000360EF00831F7800020078000E02020034
:1004D00000000000CF017800805878000201E80099
:1004E0008301E9004220AE00F6FF37009560A900C5
:1004F0004C4EA8001300200002002000D1E4200090
:10050000831F7800020078000E0202000000000045
:10051000CF017800805878000201E8008301E900EB
:100520004220AE00F6FF3700030009002682BF001C
:100530008560A9008560A900A00120000C000900C9
:100540004F1078004F0078003200F9003600F900B3
:100550004200F90000400600851F7800861F7800E1
:10056000871F78000002200084025000040032003F
:100570000281D2008381D2008502E900FCFF3A00AB
:10058000C9C2A900C982A900CD82A800C062A90081
:10059000C462A90084027800CD82A900810009000C
:1005A0000000000003F0A600CDC2A90003F0A700E0
:1005B000CDC2A8000281D2008381D200CD82A800E2
:1005C00086000900000000008502E900F2FF3A0001
:1005D000C462A800CF0378004F037800CF027800F0
:1005E00000000600851F7800861F7800871F7800AE
:1005F0000002200084025000040032000281D20078
:100600008381D2008502E900FCFF3A00C962A9009B
:10061000C982A900CD82A800C062A900C462A90055
:1006200084027800CD82A90081000900000000004A
:1006300003F0A600CD62A90003F0A700CD62A800D8
:100640000281D2008381D200CD82A80086000900F9
:10065000000000008502E900F2FF3A00C462A80031
:10066000CF0378004F037800CF0278000000060027
:10067000851F7800861F7800871F78000002200001
:1006800084025000040032000281D2008381D20033
:100690008502E900FCFF3A00C082A900C982A900D6
:1006A000CD82A800C062A900C462A90084027800BB
:1006B000CD82A900810009000000000003F0A6001F
:1006C000C482A90003F0A700C482A8000281D2005E
:1006D0008381D200CD82A8008600090000000000BE
:1006E0008502E900F2FF3A00C462A800CF03780057
:1006F0004F037800CF02780000000600851F7800C5
:10070000861F7800871F78000002200084025000B6
:10071000040032000281D2008381D2008502E90008
:10072000FCFF3A00C9A2A900C982A900CD82A80095
:10073000C062A900C462A90084027800CD82A90029
:10074000810009000000000003F0A600CDA2A9006E
:1007500003F0A700CDA2A8000281D2008381D200BD
:10076000CD82A80086000900000000008502E90093
:10077000F2FF3A00C462A800CF0378004F0378006C
:10078000CF02780000000600C062A900C462A80081
:10079000040120000210210003002000AC0202002E
:1007A00000000000C062A900C462A800040120008B
:1007B0000210210003002000F202020000000000ED
:1007C000C062A900C462A80004012000F21F210039
:1007D000030020003803020000000000C062A900EE
:1007E000C462A80004012000F21F210003002000C1
:1007F0007E0302000000000000000600851F780054
:1008000051E7A8005147A8005127A8005107A800A8
:1008100051C7AE00FEFF37000203A9000223A90062
:1008200010C0B3000AE3B7000023EF0001E3A80003
:100830001021EF000CA1EF000EA1EF0084002800B2
:1008400084088800CF02780000000600851F780029
:10085000861F7800860EF8008A0EF9008A8EBF0087
:10086000904278008502FB000500E000160032008F
:10087000880EF8008C0EF9008C8EBF001004E0008A
:1008800005003A0054748000337480000300520065
:1008900010003700080037008A8EBF0090427800B1
:1008A0008C8EBF000002780014407800002CE1001C
:1008B00001003A00020037008C2EEC00EEFF3700FA
:1008C0008A2EEC00E5FF37005474800033748000FA
:1008D000030052004F037800CF02780000000600AA
:1008E000851F7800861F7800860EF8008A0EF900B2
:1008F0008A8EBF00904278008502FB000500E00070
:1009000015003200880EF8008C0EF9008C8EBF00A6
:10091000904278008502FB000500E0000C003200E8
:100920008A8EBF00904278008C8EBF000002780053
:1009300014407800002CE10003003A008A0EF80011
:100940000000F900050037008C2EEC00EFFF3700A7
:100950008A2EEC00E6FF37000020EF004F037800FE
:10096000CF02780000000600851F78007A0EE200B2
:10097000020032007A8EBF00010037000088BF00FD
:100980007EAEB7007E0EF800860EF9007C0EF800F1
:10099000880EF90026040200000000008042780062
:1009A0008582FB000B60EF00054078007E2EB400CE
:1009B0007E8EBF001004E00005003A000540800074
:1009C00000C2B300804A78000020EF001100370019
:1009D0007E0EF800860EF9007C0EF800880EF900F5
:1009E000700402000000000080AEB700808EBF00DF
:1009F0001004E0000300320005748000804AEB0020
:100A0000802EEC00800EF8000008F9007E0EF80041
:100A10000000F900CF02780000000600851F780072
:100A2000C500200003000900B51F78000202B800CD
:100A300003F0A600020037000383B900010037006D
:100A40000303B8004200A9008502430060844B0004
:100A500001F0A60002003700028BB9000100370048
:100A6000020BB80085024B0008844B000980B000DF
:100A7000038BB90008044B0087834C008701780082
:100A80000801780085007800040078002501200026
:100A900003000900CF127800CF02780000000600A2
:100AA000851F7800861F7800871F7800842EEF004E
:100AB000802EEF00A4002000147488007C2EEF002C
:100AC0007E2EEF007A0EE20003003A0000002000C4
:100AD00001002000E4003700848EBF00842EEC006B
:100AE00080027800050078007A0EB400347480002B
:100AF000004290003474880034748000D4C2B20084
:100B00000B003A001400200004748800848EBF009B
:100B1000842EEC0080027800050078007A0EB40084
:100B20003474800000429000347488000B00370059
:100B300034748000B4C2B20008003A00848EBF0052
:100B4000842EEC0080027800050078007A0EB40054
:100B50003474800000429000347488003474800043
:100B600003032000041CE100AF003C00347480004B
:100B700093032000041CE100AB00350034748000B6
:100B800004C3B20015003A00848EBF007A0EB40090
:100B90001042780084C7B20005003200848EBF0086
:100BA0007A0EB4001042780084C5B2000B003A00FF
:100BB0000401200014748800842EEC00848EBF0091
:100BC000842EEC0080027800050078007A0EB400D4
:100BD00034748000004290003474880014748000E3
:100BE0006A20E10026003A003474800003032000EC
:100BF000041CE10021003C003474800093032000B9
:100C0000041CE1001D003500A000200001002000B0
:100C1000E2738000F37380000E0502000000000004
:100C20008002780001037800347480000443B1002E
:100C30000440780000E0B7000000FB008000EB00FB
:100C400000F0A7008080EB00050040007CAEB700FC
:100C5000068048007EAEB700848EBF00842EEC0074
:100C600080027800050078007A0EB40034748000A9
:100C70000042900034748800DBFF37006A003700C0
:100C8000147480007020E10067003A003474800022
:100C900013062000041CE10007003E0034748000AD
:100CA000A3072000041CE1000300390086CEBF002A
:100CB000F04DB2000100370086CEBF0086EEB700CF
:100CC0003474800003032000041CE10005003C0094
:100CD0003474800093032000041CE10001003500FF
:100CE000080037003474800013042000041CE10065
:100CF0004D003C003474800063042000041CE100BB
:100D0000490035003474800003032000041CE10016
:100D10001A003C003474800093032000041CE1009E
:100D20001600350044002000E5738000F673800053
:100D30000402E8000402E900030032008502D0004A
:100D40000683D200FBFF3700347480000443B100F7
:100D50000440780000E0B7000000FB008000EB00DA
:100D600000F0A7008080EB00050040007CAEB700DB
:100D7000068048007EAEB700150037004400200012
:100D8000E5738000F67380000402E8000402E900C5
:100D9000030032008502D0000683D200FBFF37003B
:100DA000347480001444B1000440780000E0B700BF
:100DB0000080FB000160EF006A0040000500400079
:100DC0007CAEB7000400200006004A007EAEB700EB
:100DD000848EBF00842EEC0080027800050078002D
:100DE0007A0EB4003474800000429000347488009D
:100DF0003474800013062000041CE10007003E004C
:100E000034748000A3072000041CE10003003900B3
:100E100086CEBF00F04DB2000100370086CEBF0085
:100E200086EEB700A6FF3700147480006A20E10048
:100E30000B003A00047480006120E10008003A00D1
:100E400004002000E3738000030052007CAEB70072
:100E500004002000F373800003005A007EAEB70048
:100E60007C8EBF00F1738000CF0378004F037800C1
:100E7000CF02780000000600851F7800861F7800EA
:100E8000822EEF007E2EEF00A40020000474880064
:100E90007C2EEF007A0EE20002003A000020EF0004
:100EA000C0003700828EBF00822EEC0080027800E6
:100EB000050078007A0EB40024748000004290008F
:100EC0002474880024748000D4C2B2000B003A005D
:100ED00014002000F4738800828EBF00822EEC0084
:100EE00080027800050078007A0EB4002474800037
:100EF00000429000247488000B00370024748000A6
:100F0000B4C2B20008003A00828EBF00822EEC000C
:100F100080027800050078007A0EB4002474800006
:100F20000042900024748800247480000303200091
:100F3000041CE1008F003C00247480009303200017
:100F4000041CE1008B0035002474800004C3B2004F
:100F500015003A00828EBF007A0EB400104278006D
:100F600084C7B20005003200828EBF007A0EB40042
:100F70001042780084C5B2000B003A000401200042
:100F800004748800822EEC00828EBF00822EEC005A
:100F900080027800050078007A0EB4002474800086
:100FA0000042900024748800047480006A20E100EC
:100FB0001C003A002474800003032000041CE1009C
:100FC00017003C002474800093032000041CE100FF
:100FD00013003500E47380006A20B80080027800B6
:100FE000247480000443B1000440780000E0B7009E
:100FF0000000FB00050040007CAEB700828EBF0001
:10100000822EEC0080027800050078007A0EB40091
:10101000247480000042900024748800E5FF3700AB
:1010200054003700047480007020E10051003A0041
:101030002474800013062000041CE10007003E0019
:1010400024748000A3072000041CE1000300390081
:1010500084CEBF00F04DB2000100370084CEBF0047
:1010600084EEB7002474800003032000041CE10018
:1010700005003C002474800093032000041CE10060
:10108000010035000800370024748000130420009C
:10109000041CE10037003C0024748000630420003D
:1010A000041CE10033003500247480000303200099
:1010B000041CE1000E003C00247480009303200017
:1010C000041CE1000A003500E5738000C42ADD003D
:1010D000247480000443B1000440780000E0B700AD
:1010E0000000FB00050040007CAEB7000B0037009D
:1010F000E5738000C42ADD00247480001444B1002C
:101100000440780000E0B7000080FB000160EF00C1
:101110006A004000050040007CAEB700828EBF0030
:10112000822EEC0080027800050078007A0EB40070
:10113000247480000042900024748800247480008D
:1011400013062000041CE10007003E002474800008
:10115000A3072000041CE1000300390084CEBF0077
:10116000F04DB2000100370084CEBF0084EEB7001E
:10117000BCFF3700F47380006120E10007003A00F3
:10118000047480006A20E10004003A00040020009A
:10119000E3738000030052007CAEB7007C0EF800C1
:1011A0000000F9004F037800CF027800000006002D
:1011B000851F780002002000B1E6200002007800C0
:1011C0000002020000000000805878000201E800E0
:1011D0000004E0004220AE00F8FF370024E52000C4
:1011E000D4738800B4E62000E4738800B4040200DD
:1011F000000000006CAEB7006E2EEF006C0EE20037
:10120000580032006E0EE20006003A006C0EF80044
:101210007A0EF900500502000000000076AEB7001B
:10122000C1738800747380006220E1000D003A00F1
:101230006C0EF8007A0EF9003C0702000000000076
:1012400070AEB70000102100700EB400800278006C
:10125000040120000501780003002000AC02020018
:1012600000000000747380006320E1000D003A006C
:101270006C0EF8007A0EF9003C0702000000000036
:1012800070AEB70000102100700EB400800278002C
:10129000040120000501780003002000380302004B
:1012A00000000000747380006520E1000D003A002A
:1012B0006C0EF8007A0EF9003C07020000000000F6
:1012C00072AEB70000102100720EB40080027800E8
:1012D000040120000501780003002000F202020052
:1012E00000000000747380006620E1000F003A00E7
:1012F0006C0EF8007A0EF9003C07020000000000B6
:1013000074AEB70000102100740EB40080027800A3
:1013100004012000050178008001EB0002F0A70025
:101320008081EB007E0302000000000074738000E7
:101330006720E10000003A00747380006820E1003B
:1013400000003A006E2EEC007A2EEF00B4E620008A
:10135000E4738800B4040200000000006CAEB70023
:10136000A6FF3700CF027800000006000000E00072
:101370004220AF00040037002D00090000000000EB
:101380000000E900FCFF3A0000000600851F78001D
:101390000621EF000A21EF004A2EEF005472800070
:1013A000031920000418E1002B0036000603A900F1
:1013B0000AA3A800638020000603AE00FEFF3700EA
:1013C00001198000121980008119780082097800C3
:1013D0000603A9004A8EBF004100DD00A480200062
:1013E00084024000344080008402980000192000EC
:1013F0004A0EB400800278004128DD00A48020005D
:101400008402400044408000840298004A2EEC0090
:10141000B4738000036A28000418E1000A003A004F
:10142000C47380006120E10007003A0000352C0001
:10143000B60902000000000000352C00B6090200C9
:101440000000000003003700768EBF00B6090200DE
:1014500000000000D1FF37000601F8004E0EF90031
:101460000801F800500EF9004C2EA800CF027800B9
:1014700000000600851F7800C50020000300090059
:10148000B51F7800800378008404780004F0A10080
:101490000400E00006003A0009F0A700020037004F
:1014A000050020000F003700050020000D00370068
:1014B000E64252000A0039000003200009F0A600AD
:1014C000000220002322AF00FEFF370024A2B70055
:1014D0008502E900FBFF3B005500200001003700BA
:1014E000840278006400200005E0A00009F0A70055
:1014F00005F0A00008712200110009008883D800BF
:10150000B40A02000000000081037800883E200039
:10151000110009008883D800B40A0200000000000E
:101520008103780048062000110009008883D80054
:10153000B40A02000000000081037800A800200027
:10154000110009008883D800B40A020000000000DE
:101550000003200000C040002322AF00FEFF370040
:1015600024A2B70017003700060320000000E000A7
:101570000E003A0005E0A6000D0037000402E90065
:101580000524E100020032004200AF000000060026
:101590000000E00005003A0005E0A6000400370066
:1015A00005F0A600060220000100370005E0A100BA
:1015B000004043002322AF00FEFF370024A2B70003
:1015C000000006002501200003000900CF1278006A
:1015D000CF02780000000600861F7800871F780081
:1015E000881F7800891F78000002EB008002EB0062
:1015F0000003EB008003EB000304690011003200DC
:10160000080220004200A9000080D2008180D200A0
:101610000482D2008582D2000328E10001003A0052
:1016200002A0E100030039000202520083825A0046
:101630004200A8000683D2008783D2000804E90094
:10164000F0FF3A008700780006007800CF047800A9
:101650004F047800CF0378004F03780000000600A5
:10166000851F7800C500200007000900B51F78001D
:1016700000037800810378000406780004F0A100DC
:101680000400E00002003A00050020000D003700D1
:10169000EB4252000A003900000320000CF0A600C3
:1016A000000220002322AF00FEFF370024A2B70073
:1016B0008502E900FBFF3B00A50020000100370088
:1016C0008402780008012000090020001000FA00C0
:1016D0000C377C000884E900FDFF3B00A4002000DB
:1016E00005E0A0000CF0A70005F0A000040F7800B2
:1016F00015079800060078008700780002A02C00EB
:10170000A3B92300087122000DF0A1000DF0A20082
:10171000EC0A0200000000000DF0A70007003700EF
:101720004007980051079800000178008101780077
:101730002E009000BE009000F4FF37004207980092
:101740005307980024079800350798001E02780078
:101750009E029000060320000000E00011003A0005
:1017600005E0A600110037000402E900040F78002C
:101770000400E0000D0032000524E1004200AF004B
:101780000E003700060320000000E00005003A00CC
:1017900005E0A6000500370005F0A60006022000BF
:1017A0000200370005E0A100150798000040430043
:1017B0002322AF00FEFF370024A2B7004E009000A6
:1017C000DE009000A20020008001EB006100E1003B
:1017D00001003200CDFF37000080FA00A501200093
:1017E00007000900CF127800CF0278000000060041
:1017F000851F78004A2EEF005472800003322000CB
:101800000418E100200036004A8EBF004100DD00D0
:10181000A4802000040040009002780005007800B9
:10182000440028003A0A0200000000002322AF0012
:10183000FEFF3700C402200024118800547280008B
:10184000F4B1B2000E003A004E8EBF0081728000EB
:10185000A4002800300B0200000000002322AF008B
:10186000FEFF3700C402200024118800768EBF00DE
:10187000C1738000A4002800300B020000000000AB
:101880004A2EEC00DCFF37004C2EA900CF02780076
:10189000000006000FF82000F0FF200020A0B70095
:1018A00000000000404424004005880081E0A800BA
:1018B0006004200042E7B7007005200042E7B7004F
:1018C00042C7A900F0F02300A4A6B7003000200012
:1018D000D8A6B7006004200042E7B70070052000DA
:1018E00042E7B70042C7A8004427EF0004032000E6
:1018F000343A88000E00FC003010200031742000C3
:1019000082072000A30920008248780083487800DD
:1019100043E7B7004800DE00217420006204200085
:10192000730520008248780083487800804878005A
:1019300004002800041188000440200014118800CD
:101940002062A8005403200044118800C9C2A900E5
:10195000C982A900CD82A800C062A900C462A90002
:10196000C962A900C982A900CD82A800C062A900ED
:10197000C462A900C082A900C982A900CD82A800C2
:10198000C062A900C462A900C9A2A900C982A900B5
:10199000CD82A800C062A900C462A9004A2EEF004F
:1019A0004C0EA9004C2EA9004C4EA9004C6EA9006B
:1019B0006E2EEF00F40F200084738800F40F2000D7
:1019C00094738800762EEF00782EEF0002A3EF00CC
:1019D0000028EF007400200004168800740028001E
:1019E00044168800C062A900C462A800C4030200B3
:1019F00000000000FE0302000000000003000900D8
:101A00002682BF008560A9009560A80081E0A9003A
:101A10004220EF0081E0A8004C4EAE0004003700E9
:101A2000D8080200000000004C4EA9004C0EA8008F
:101A30004C6EAE00020037004C0EA9004C6EA9009F
:101A40004C0EAE0007003700C6090200000000007F
:101A50004C2EAE0002003700F80B02000000000020
:101A60004C0EA9009560A800EBFF37000040FE0077
:0200000401F009
:100000000F0000FF000000FF070000FF800000FF5E
:10001000650000FF1F0000FF080000FFC30000FF95
:00000001FF
;DSPIC33FJ16GS502
;CRC=FE0F  CREATED="19-Thg5-16 17:07"
